:100000000C942A000C946F090C94F5090C94470089
:100010000C9447000C9447000C9447000C94470044
:100020000C9447000C9447000C9447000C94470034
:100030000C9447000C9447000C9447000C94470024
:100040000C9447000C9447000C947E0A0C944700D3
:100050000C94470011241FBECFE5D4E0DEBFCDBF16
:1000600010E0A0E6B0E0E6E4F8E302C005900D92EF
:10007000AA37B107D9F710E0AAE7B0E001C01D9296
:10008000A739B107E1F70E942D140C94211C0C94A0
:100090000000EF92FF920F931F937B018C0120E0F1
:1000A00030E040E05FE40E94F50388238CF0C80153
:1000B000B70120E030E040E05FE40E94C1010E940F
:1000C00055049B01AC01205030404040504806C0D0
:1000D000C801B7010E9455049B01AC01B901CA01D6
:1000E0001F910F91FF90EF900895A0E0B0E0EBE733
:1000F000F0E00C94EA1BDC012B01FA019C91923098
:1001000008F439C1EB018881823008F433C194309E
:1001100069F4843009F02FC111969C91119789815F
:10012000981709F428C1ABE6B0E025C1843009F482
:1001300021C18230A9F4923009F01DC19A01AD01AC
:1001400088E0EA010990AE01E90109929E0181501F
:10015000C1F7E201898111969C918923818308C1AD
:10016000923009F407C112962D903C901397EB0141
:100170008A819B811496AD90BD90CD90DC901797AD
:10018000EC80FD800E811F819101281B390BB90184
:1001900037FF04C066277727621B730B6032710537
:1001A0000CF061C0121613066CF537014801062EDB
:1001B00004C096948794779467940A94D2F721E0C8
:1001C00030E040E050E004C0220F331F441F551FB1
:1001D0006A95D2F721503040404050402E213F21B7
:1001E00040235123211531054105510521F021E01E
:1001F00030E040E050E079018A01E628F72808293C
:1002000019293CC0232BD1F1260E371E350146019A
:10021000062E04C096948794779467940A94D2F734
:1002200021E030E040E050E004C0220F331F441FC3
:10023000551F6A95D2F721503040404050402A2146
:100240003B214C215D21211531054105510521F04E
:1002500021E030E040E050E059016A01A628B728CB
:10026000C828D9280BC0821593052CF01C01AA249C
:10027000BB24650103C0EE24FF24870111969C91E5
:10028000D20111968C91981709F445C0992339F041
:10029000A80197012A193B094C095D0906C0A6016E
:1002A00095012E193F09400B510B57FD08C01182D3
:1002B0003382228224833583468357831DC081E0A5
:1002C00081833382228288279927DC01821B930B4A
:1002D000A40BB50B84839583A683B7830DC0220F2F
:1002E000331F441F551F24833583468357838281E0
:1002F000938101979383828324813581468157813D
:10030000DA01C9010197A109B1098F5F9F4FAF4F72
:10031000BF4328F30BC0918333822282EA0CFB1C7B
:100320000C1D1D1DE482F5820683178383E0808304
:10033000248135814681578157FF1AC0C901AA27F8
:1003400097FDA095BA2F81709070A070B0705695EF
:10035000479537952795822B932BA42BB52B848318
:100360009583A683B7838281938101969383828349
:10037000DF0101C0D201CD01CDB7DEB7E2E10C94BF
:10038000061CA0E2B0E0E7ECF1E00C94F61B6983F8
:100390007A838B839C832D833E834F835887E9E048
:1003A000EE2EF12CEC0EFD1ECE010196B7010E943F
:1003B0007E058E010F5E1F4FCE010596B8010E948B
:1003C0007E058A8991E089278A8BC701B801AE0131
:1003D000475E5F4F0E9475000E94A904A096E6E068
:1003E0000C94121CA0E2B0E0E8EFF1E00C94F61BD4
:1003F00069837A838B839C832D833E834F835887C5
:10040000F9E0EF2EF12CEC0EFD1ECE010196B701A6
:100410000E947E058E010F5E1F4FCE010596B8012A
:100420000E947E05C701B801AE01475E5F4F0E9482
:1004300075000E94A904A096E6E00C94121CA0E2AC
:10044000B0E0E5E2F2E00C94EA1B69837A838B83E7
:100450009C832D833E834F835887CE010196BE0136
:10046000675F7F4F0E947E05CE010596BE016F5EDD
:100470007F4F0E947E059985923088F0898982306D
:10048000C8F0943019F4823051F404C0843029F457
:10049000923081F48BE690E0C6C0923049F420E0BF
:1004A0009A858A89981321E02A87CE010996BBC0D4
:1004B000823049F420E09A858A89981321E02A8BBA
:1004C000CE014196B0C02D843E844F8458886D88FB
:1004D0007E888F88988CEE24FF248701AA24BB2471
:1004E000650140E050E060E070E0E0E0F0E0C10174
:1004F00081709070892BE9F0E60CF71C081D191D1E
:100500009A01AB012A0D3B1D4C1D5D1D80E090E062
:10051000A0E0B0E0E614F7040805190520F481E036
:1005200090E0A0E0B0E0BA01A901480F591F6A1F8E
:100530007B1FAA0CBB1CCC1CDD1C97FE08C081E0F5
:1005400090E0A0E0B0E0A82AB92ACA2ADB2A3196B6
:10055000E032F10549F0660C771C881C991C569412
:10056000479437942794C3CFFA85EA892B893C892D
:100570008B859C85280F391F2E5F3F4F17C0CA01FE
:1005800081709070892B61F016950795F794E79428
:1005900080E090E0A0E0B0E8E82AF92A0A2B1B2BC3
:1005A00076956795579547952F5F3F4F77FDE7CF36
:1005B0000CC0440F551F661F771F17FD4160EE0CDE
:1005C000FF1C001F111F21503040403090E05907A0
:1005D00090E0690790E4790760F32B8F3C8FDB0193
:1005E000CA018F779070A070B07080349105A1051A
:1005F000B10561F447FD0AC0E114F10401051105DC
:1006000029F0405C5F4F6F4F7F4F40781A8EFE1786
:1006100011F081E08A8F4D8F5E8F6F8F78A383E01A
:10062000898FCE0149960E94A904A096E2E10C941C
:10063000061CA8E1B0E0EFE1F3E00C94F21B698343
:100640007A838B839C832D833E834F835887B9E0C5
:10065000EB2EF12CEC0EFD1ECE010196B7010E948F
:100660007E058E010F5E1F4FCE010596B8010E94D8
:100670007E052985223008F47EC03989323010F495
:10068000B8017CC08A859A8989278A87243011F02D
:10069000223031F4231709F06EC06BE670E06EC0B3
:1006A000343039F41D861E861F86188A1C861B86E8
:1006B00004C0323021F484E08987B7015FC02B8504
:1006C0003C858B899C89281B390B3C872B87ED84C3
:1006D000FE840F851889AD88BE88CF88D88CEA142F
:1006E000FB040C051D0540F4EE0CFF1C001F111F40
:1006F000215030403C872B8720E030E040E050E044
:1007000080E090E0A0E0B0E460E070E0EA14FB0478
:100710000C051D0540F0282B392B4A2B5B2BEA18C2
:10072000FB080C091D09B695A79597958795EE0CC2
:10073000FF1C001F111F6F5F7F4F6F31710531F775
:10074000DA01C9018F779070A070B0708034910584
:10075000A105B10561F427FD0AC0E114F10401050A
:10076000110529F0205C3F4F4F4F5F4F20782D87B8
:100770003E874F87588BBE01675F7F4FCB010E943A
:10078000A9046896EAE00C940E1CA8E1B0E0EBEC3A
:10079000F3E00C94F61B69837A838B839C832D830F
:1007A0003E834F83588789E0E82EF12CEC0EFD1E26
:1007B000CE010196B7010E947E058E010F5E1F4F8C
:1007C000CE010596B8010E947E058985823040F0F1
:1007D0008989823028F0C701B8010E94F60501C05E
:1007E0008FEF6896E6E00C94121CA8E1B0E0EBEF06
:1007F000F3E00C94F61B69837A838B839C832D83AF
:100800003E834F83588789E0E82EF12CEC0EFD1EC5
:10081000CE010196B7010E947E058E010F5E1F4F2B
:10082000CE010596B8010E947E058985823040F090
:100830008989823028F0C701B8010E94F60501C0FD
:100840008FEF6896E6E00C94121CA8E1B0E0EBE2B2
:10085000F4E00C94F61B69837A838B839C832D834D
:100860003E834F83588789E0E82EF12CEC0EFD1E65
:10087000CE010196B7010E947E058E010F5E1F4FCB
:10088000CE010596B8010E947E058985823040F030
:100890008989823028F0C701B8010E94F60501C09D
:1008A00081E06896E6E00C94121CACE0B0E0EBE569
:1008B000F4E00C94FA1B69837A838B839C83CE01CA
:1008C0000196BE016B5F7F4F0E947E058D81823055
:1008D00061F1823050F1843021F48E81882351F10E
:1008E0002EC02F81388537FD20C06E812F31310514
:1008F0001CF06623F9F023C08EE190E0821B930B7D
:1009000029853A854B855C8504C056954795379572
:1009100027958A95D2F76623B1F05095409530958A
:1009200021953F4F4F4F5F4F0EC020E030E040E039
:1009300050E009C02FEF3FEF4FEF5FE704C020E02A
:1009400030E040E050E8B901CA012C96E2E00C9496
:10095000161CDF92EF92FF920F931F93FC01E4802D
:10096000F58006811781D1808081823048F480E053
:1009700090E0A0E1B0E0E82AF92A0A2B1B2BA5C0E1
:10098000843009F49FC0823021F4EE24FF248701D3
:1009900005C0E114F1040105110519F4E0E0F0E0EF
:1009A00096C0628173819FEF623879070CF05BC05B
:1009B00022E83FEF261B370B2A3131052CF020E0CF
:1009C00030E040E050E02AC0B801A701022E04C088
:1009D00076956795579547950A94D2F781E090E010
:1009E000A0E0B0E004C0880F991FAA1FBB1F2A9582
:1009F000D2F70197A109B1098E219F21A023B1232C
:100A00000097A105B10521F081E090E0A0E0B0E001
:100A10009A01AB01282B392B4A2B5B2BDA01C90138
:100A20008F779070A070B07080349105A105B105EA
:100A300039F427FF09C0205C3F4F4F4F5F4F04C080
:100A4000215C3F4F4F4F5F4FE0E0F0E02030A0E0EF
:100A50003A07A0E04A07A0E45A0710F0E1E0F0E00E
:100A600079018A0127C06038710564F5FB01E158FE
:100A7000FF4FD801C7018F779070A070B07080349D
:100A80009105A105B10539F4E7FE0DC080E490E0C1
:100A9000A0E0B0E004C08FE390E0A0E0B0E0E80E9A
:100AA000F91E0A1F1B1F17FF05C016950795F7941F
:100AB000E794319687E016950795F794E7948A9521
:100AC000D1F705C0EE24FF248701EFEFF0E06E2F91
:100AD000679566276795902F9F77D794DD24D794E5
:100AE0008E2F8695492F462B582F5D29B701CA01B5
:100AF0001F910F91FF90EF90DF900895FC01DB01B3
:100B0000408151812281622F6F7770E0221F22275E
:100B1000221F9381892F880F822B282F30E0991F65
:100B20009927991F11969C93119721153105A9F5C5
:100B3000411551056105710511F482E037C082E865
:100B40009FEF13969C938E9312979A01AB0167E0E7
:100B5000220F331F441F551F6A95D1F783E08C93F2
:100B60000DC0220F331F441F551F12968D919C916B
:100B70001397019713969C938E931297203080E0E1
:100B8000380780E0480780E4580758F314962D93FF
:100B90003D934D935C93179708952F3F310579F45A
:100BA000411551056105710519F484E08C93089590
:100BB00064FF03C081E08C9312C01C9210C02F57B9
:100BC000304013963C932E93129783E08C9387E0EA
:100BD000440F551F661F771F8A95D1F770641496CE
:100BE0004D935D936D937C93179708951F93DC014C
:100BF000FB019C91923008F447C08081823008F458
:100C000043C0943051F411961C91843099F5818140
:100C1000682F70E0611B71093FC0843021F0923071
:100C200031F48230B9F18181882389F12DC0119688
:100C30001C9111978230F1F081811817D9F4129626
:100C40002D913C911397828193818217930794F0A1
:100C500028173907BCF014968D919D910D90BC9189
:100C6000A02D2481358146815781281739074A07ED
:100C70005B0718F4112341F00AC082179307A407F9
:100C8000B50740F4112319F061E070E005C06FEF83
:100C90007FEF02C060E070E0CB011F910895DF9309
:100CA000CF93CDB7DEB76C970FB6F894DEBF0FBE0B
:100CB000CDBFA1E3B0E0E1E3F0E0808180688C93F8
:100CC000A2E3B0E0E2E3F0E0808180688C9380E012
:100CD00090E0A8ECB2E4898F9A8FAB8FBC8F698DBE
:100CE0007A8D8B8D9C8D20E030E04AEF54E40E9499
:100CF0001F02DC01CB018D8B9E8BAF8BB88F6D8972
:100D00007E898F89988D20E030E040E85FE30E9483
:100D1000250488232CF481E090E09C8B8B8B3FC0D2
:100D20006D897E898F89988D20E03FEF4FE757E4EA
:100D30000E94C50318164CF5698D7A8D8B8D9C8D9C
:100D400020E030E040E251E40E941F02DC01CB01D0
:100D5000BC01CD010E944900DC01CB019C8B8B8B37
:100D60000FC088EC90E09A8B898B89899A890197CA
:100D7000F1F79A8B898B8B899C8901979C8B8B8B44
:100D80008B899C89009769F714C06D897E898F894A
:100D9000988D0E944900DC01CB019C8B8B8B8B8949
:100DA0009C89988B8F878F8598890197F1F7988B0D
:100DB0008F87A2E3B0E0E2E3F0E080818F778C934D
:100DC00080E090E0A0E9B1E48B879C87AD87BE8787
:100DD0006B857C858D859E8520E030E04AEF54E46C
:100DE0000E941F02DC01CB018F839887A987BA87F5
:100DF0006F81788589859A8520E030E040E85FE35F
:100E00000E94250488232CF481E090E09E838D834A
:100E10003FC06F81788589859A8520E03FEF4FE755
:100E200057E40E94C50318164CF56B857C858D85AB
:100E30009E8520E030E040E251E40E941F02DC0188
:100E4000CB01BC01CD010E944900DC01CB019E8396
:100E50008D830FC088EC90E09C838B838B819C8179
:100E60000197F1F79C838B838D819E8101979E83EF
:100E70008D838D819E81009769F714C06F8178857D
:100E800089859A850E944900DC01CB019E838D8370
:100E90008D819E819A83898389819A810197F1F757
:100EA0009A838983A2E3B0E0E2E3F0E08081806886
:100EB0008C936C960FB6F894DEBF0FBECDBFCF916A
:100EC000DF910895DF93CF93CDB7DEB7A1E3B0E014
:100ED000E1E3F0E080818F778C93E0E3F0E08081C4
:100EE0008823DCF3E0E3F0E080818823DCF7E0E3B3
:100EF000F0E080818823DCF3CF91DF910895DF93C8
:100F0000CF93CDB7DEB76A970FB6F894DEBF0FBEAA
:100F1000CDBF1A8E198EDBC0E0E3F0E0808188231C
:100F2000DCF780E090E0A0EFB1E48D8B9E8BAF8B7F
:100F3000B88F6D897E898F89988D2BEA3AEA4AE2CB
:100F400050E40E941F02DC01CB01898B9A8BAB8B92
:100F5000BC8B69897A898B899C8920E030E040E8E4
:100F60005FE30E94250488231CF481E0888B91C0F4
:100F700069897A898B899C8920E030E04FE753E4C6
:100F80000E94C50318160CF07BC06D897E898F897D
:100F9000988D20E030E04AE754E40E941903DC0118
:100FA000CB018C879D87AE87BF876C857D858E85BD
:100FB0009F8520E030E04AEF54E40E941F02DC01EC
:100FC000CB0188879987AA87BB87688579858A85B9
:100FD0009B8520E030E040E85FE30E942504882301
:100FE0002CF481E090E09F838E833FC068857985F3
:100FF0008A859B8520E03FEF4FE757E40E94C503B9
:1010000018164CF56C857D858E859F8520E030E037
:1010100040E251E40E941F02DC01CB01BC01CD0182
:101020000E944900DC01CB019F838E830FC088ECB6
:1010300090E09D838C838C819D810197F1F79D8346
:101040008C838E819F8101979F838E838E819F8168
:10105000009769F724C0688579858A859B850E94F9
:101060004900DC01CB019F838E838E819F819B830E
:101070008A838A819B810197F1F79B838A830FC0C2
:1010800069897A898B899C890E944900DC01CB019E
:10109000888B8889898389818A95F1F78983E0E340
:1010A000F0E08081882344F48A8D882F90E0880FB7
:1010B000991F81608A8F03C08A8D880F8A8FE0E331
:1010C000F0E080818823DCF3898D8F5F898F898DA3
:1010D000883008F421CF8A8D6A960FB6F894DEBF67
:1010E0000FBECDBFCF91DF910895DF93CF9300D096
:1010F000CDB7DEB79A838983A7E2B0E0E981FA81B0
:10110000808183708295880F807E8C93A6E2B0E008
:10111000E981FA818181877080688C930F900F90AC
:10112000CF91DF910895DF93CF930F92CDB7DEB7C4
:101130008983A7E2B0E0E7E2F0E08081982F907E1B
:1011400089818770892B8C93A6E2B0E0E6E2F0E01B
:10115000808180658C93E6E2F0E08081882F90E0CA
:10116000807190700097B9F3E4E2F0E080819181A2
:101170000F90CF91DF910895DF93CF93CDB7DEB776
:10118000A4E3B0E0E4E3F0E08081806E8C93A5E31B
:10119000B0E0E5E3F0E080818F718C93CF91DF9137
:1011A0000895DF93CF93CDB7DEB7A5E3B0E0E5E3D5
:1011B000F0E0808180628C93CF91DF910895DF937E
:1011C000CF93CDB7DEB7A5E3B0E0E5E3F0E08081F3
:1011D0008F7D8C93CF91DF910895DF93CF93CDB71F
:1011E000DEB7A5E3B0E0E5E3F0E0808180648C93B6
:1011F000CF91DF910895DF93CF93CDB7DEB7A5E30D
:10120000B0E0E5E3F0E080818F7B8C93CF91DF91BC
:101210000895DF93CF93CDB7DEB7A5E3B0E0E5E364
:10122000F0E0808180688C93CF91DF910895DF9307
:10123000CF93CDB7DEB7A5E3B0E0E5E3F0E0808182
:101240008F778C93CF91DF910895DF93CF9300D068
:10125000CDB7DEB79A838983A1E3B0E0E1E3F0E0A4
:1012600080818B7F8C93A2E3B0E0E2E3F0E08081A9
:10127000282FE981FA818181882F90E0880F991FBA
:10128000880F991F822B8C93ABE5B0E0EBE5F0E083
:10129000808180648C93A5E5B0E0E5E5F0E0808195
:1012A000982F9C7FE981FA8180818370892B8C93B0
:1012B0000F900F90CF91DF910895DF93CF9300D0DF
:1012C000CDB7DEB79A83898389819A8190937B0019
:1012D00080937A000F900F90CF91DF9108951F9225
:1012E0000F920FB60F9211242F933F934F935F935A
:1012F0006F937F938F939F93AF93BF93EF93FF93DE
:10130000DF93CF93CDB7DEB780917A0090917B00C9
:10131000009729F0E0917A00F0917B000995CF9138
:10132000DF91FF91EF91BF91AF919F918F917F914D
:101330006F915F914F913F912F910F900FBE0F9042
:101340001F901895DF93CF9300D0CDB7DEB79A8367
:101350008983A1E3B0E0E1E3F0E08081877F8C93B3
:10136000A2E3B0E0E2E3F0E08081282FE981FA8196
:101370008181882F90E0880F991F880F991F880F0F
:10138000991F822B8C93ABE5B0E0EBE5F0E0808118
:1013900080688C93A5E5B0E0E5E5F0E08081282F3A
:1013A000237FE981FA818081882F90E0837090709B
:1013B000880F991F880F991F822B8C930F900F9085
:1013C000CF91DF910895DF93CF9300D0CDB7DEB7F3
:1013D0009A83898389819A8190937D0080937C0090
:1013E0000F900F90CF91DF9108951F920F920FB63B
:1013F0000F9211242F933F934F935F936F937F939B
:101400008F939F93AF93BF93EF93FF93DF93CF930C
:10141000CDB7DEB780917C0090917D00009729F0D8
:10142000E0917C00F0917D000995CF91DF91FF91D3
:10143000EF91BF91AF919F918F917F916F915F914C
:101440004F913F912F910F900FBE0F901F901895C5
:10145000DF93CF9300D0CDB7DEB79A838983A7E31C
:10146000B0E0E7E3F0E080818B7F8C93A8E3B0E00D
:10147000E8E3F0E08081282FE981FA818181882FDB
:1014800090E0880F991F880F991F822B8C93ABE5F2
:10149000B0E0EBE5F0E0808180628C93A4E5B0E001
:1014A000E4E5F0E08081282F2F7BE981FA818081BB
:1014B000882F90E08170907000249695879507940E
:1014C000969587950794982F802D822B8C930F905B
:1014D0000F90CF91DF910895DF93CF9300D0CDB7D8
:1014E000DEB79A83898389819A8190937F00809364
:1014F0007E000F900F90CF91DF9108951F920F9271
:101500000FB60F9211242F933F934F935F936F93D6
:101510007F938F939F93AF93BF93EF93FF93DF934B
:10152000CF93CDB7DEB780917E0090917F0000977A
:1015300029F0E0917E00F0917F000995CF91DF9135
:10154000FF91EF91BF91AF919F918F917F916F919B
:101550005F914F913F912F910F900FBE0F901F9071
:101560001895DF93CF930F92CDB7DEB78983ABE5A4
:10157000B0E0EBE5F0E08081282F8981882F90E0B2
:10158000880F991F82959295907F9827807F982742
:10159000809582238C930F90CF91DF910895DF93F4
:1015A000CF93CDB7DEB7A7E3B0E0E7E3F0E080810B
:1015B00080678C93A7E3B0E0E7E3F0E080818F6081
:1015C0008C9382E00E94F00A88E20E94F00A8CE08C
:1015D0000E94F00A81E00E94F00ACF91DF91089505
:1015E0000F931F93DF93CF93CDB7DEB7C356D04091
:1015F0000FB6F894DEBF0FBECDBFFE01ED59FF4F11
:101600008083A8E3B0E0E8E3F0E080818F7E8C93F4
:10161000A8E3B0E0E8E3F0E080818F7D8C93FE01E9
:10162000E15AFF4F80E090E0A0E8BFE38083918320
:10163000A283B3838E01055A1F4FFE01E15AFF4F6B
:10164000608171818281938120E030E04AEF54E42F
:101650000E941F02DC01CB01F80180839183A283E9
:10166000B383FE01E55AFF4F6081718182819381CE
:1016700020E030E040E85FE30E942504882344F442
:10168000FE01E75AFF4F81E090E09183808364C0C0
:10169000FE01E55AFF4F608171818281938120E0D4
:1016A0003FEF4FE757E40E94C50318160CF043C004
:1016B000FE01E15AFF4F608171818281938120E0B8
:1016C00030E040E251E40E941F02DC01CB018E01B8
:1016D000075A1F4FBC01CD010E944900DC01CB011C
:1016E000F801918380831FC0FE01E95AFF4F88EC07
:1016F00090E091838083FE01E95AFF4F80819181C0
:101700000197F1F7FE01E95AFF4F91838083DE01D3
:10171000A75ABF4FFE01E75AFF4F80819181019781
:1017200011969C938E93FE01E75AFF4F8081918121
:101730000097D1F627C08E01075A1F4FFE01E55AC8
:10174000FF4F60817181828193810E944900DC0199
:10175000CB01F80191838083DE01AB5ABF4FFE01BC
:10176000E75AFF4F808191818D939C93FE01EB5A44
:10177000FF4F808191810197F1F7FE01EB5AFF4FF6
:1017800091838083A8E3B0E0E8E3F0E080818064A7
:101790008C93FE01EF5AFF4F80E090E0A0E8BFE39A
:1017A00080839183A283B3838E01035B1F4FFE016D
:1017B000EF5AFF4F608171818281938120E030E098
:1017C0004AEF54E40E941F02DC01CB01F801808340
:1017D0009183A283B383FE01E35BFF4F608171813C
:1017E0008281938120E030E040E85FE30E9425049D
:1017F000882344F4FE01E55BFF4F81E090E0918394
:10180000808364C0FE01E35BFF4F60817181828150
:10181000938120E03FEF4FE757E40E94C50318167D
:101820000CF043C0FE01EF5AFF4F6081718182814D
:10183000938120E030E040E251E40E941F02DC018D
:10184000CB018E01055B1F4FBC01CD010E944900F9
:10185000DC01CB01F801918380831FC0FE01E75BAF
:10186000FF4F88EC90E091838083FE01E75BFF4FA0
:10187000808191810197F1F7FE01E75BFF4F918332
:101880008083DE01A55BBF4FFE01E55BFF4F8081DA
:101890009181019711969C938E93FE01E55BFF4F1A
:1018A000808191810097D1F627C08E01055B1F4F83
:1018B000FE01E35BFF4F60817181828193810E9411
:1018C0004900DC01CB01F80191838083DE01A95B33
:1018D000BF4FFE01E55BFF4F808191818D939C930B
:1018E000FE01E95BFF4F808191810197F1F7FE01D5
:1018F000E95BFF4F91838083A8E3B0E0E8E3F0E089
:101900008081982F907FFE01ED59FF4F8081829555
:101910008F70892B8C93FE01ED5BFF4F80E090E090
:10192000A0E8BFE380839183A283B3838E01015C2F
:101930001F4FFE01ED5BFF4F6081718182819381BA
:1019400020E030E04AEF54E40E941F02DC01CB01AA
:10195000F80180839183A283B383FE01FF966081A7
:1019600071818281938120E030E040E85FE30E9452
:10197000250488232CF481E090E09EAF8DAF46C013
:10198000FE01FF96608171818281938120E03FEFAB
:101990004FE757E40E94C503181664F5FE01ED5B9E
:1019A000FF4F608171818281938120E030E040E2CD
:1019B00051E40E941F02DC01CB01BC01CD010E9459
:1019C0004900DC01CB019EAF8DAF0FC088EC90E0E9
:1019D0009CAF8BAF8BAD9CAD0197F1F79CAF8BAFFC
:1019E0008DAD9EAD01979EAF8DAF8DAD9EAD009735
:1019F00069F716C0FE01FF96608171818281938133
:101A00000E944900DC01CB019EAF8DAF8DAD9EAD34
:101A10009AAF89AF89AD9AAD0197F1F79AAF89AFC7
:101A2000A8E3B0E0E8E3F0E080818F7B8C9380E076
:101A300090E0A0E8BFE38DAB9EABAFABB8AF6DA9B4
:101A40007EA98FA998AD20E030E04AEF54E40E94CF
:101A50001F02DC01CB0189AB9AABABABBCAB69A974
:101A60007AA98BA99CA920E030E040E85FE30E94BE
:101A7000250488232CF481E090E098AB8FA73FC029
:101A800069A97AA98BA99CA920E03FEF4FE757E409
:101A90000E94C50318164CF56DA97EA98FA998ADB3
:101AA00020E030E040E251E40E941F02DC01CB0163
:101AB000BC01CD010E944900DC01CB0198AB8FA78E
:101AC0000FC088EC90E09EA78DA78DA59EA50197DD
:101AD000F1F79EA78DA78FA598A9019798AB8FA71F
:101AE0008FA598A9009769F714C069A97AA98BA94D
:101AF0009CA90E944900DC01CB0198AB8FA78FA560
:101B000098A99CA78BA78BA59CA50197F1F79CA7EB
:101B10008BA7A8E3B0E0E8E3F0E0808180648C93D9
:101B200080E090E0A0E8BFE38FA398A7A9A7BAA799
:101B30006FA178A589A59AA520E030E04AEF54E48A
:101B40000E941F02DC01CB018BA39CA3ADA3BEA30B
:101B50006BA17CA18DA19EA120E030E040E85FE375
:101B60000E94250488232CF481E090E09AA389A3A5
:101B70003FC06BA17CA18DA19EA120E03FEF4FE76C
:101B800057E40E94C50318164CF56FA178A589A5E6
:101B90009AA520E030E040E251E40E941F02DC01FF
:101BA000CB01BC01CD010E944900DC01CB019AA30D
:101BB00089A30FC088EC90E098A38F8F8F8D98A198
:101BC0000197F1F798A38F8F89A19AA101979AA302
:101BD00089A389A19AA1009769F714C06BA17CA180
:101BE0008DA19EA10E944900DC01CB019AA389A38B
:101BF00089A19AA19E8F8D8F8D8D9E8D0197F1F772
:101C00009E8F8D8FA8E3B0E0E8E3F0E08081982F0D
:101C1000907FFE01ED59FF4F80818F70892B8C934F
:101C200080E090E0A0E8BFE3898F9A8FAB8FBC8FF4
:101C3000698D7A8D8B8D9C8D20E030E04AEF54E4E5
:101C40000E941F02DC01CB018D8B9E8BAF8BB88F66
:101C50006D897E898F89988D20E030E040E85FE3D0
:101C60000E94250488232CF481E090E09C8B8B8BD0
:101C70003FC06D897E898F89988D20E03FEF4FE7C7
:101C800057E40E94C50318164CF5698D7A8D8B8D2B
:101C90009C8D20E030E040E251E40E941F02DC0114
:101CA000CB01BC01CD010E944900DC01CB019C8B22
:101CB0008B8B0FC088EC90E09A8B898B89899A89ED
:101CC0000197F1F79A8B898B8B899C8901979C8B63
:101CD0008B8B8B899C89009769F714C06D897E89ED
:101CE0008F89988D0E944900DC01CB019C8B8B8BE6
:101CF0008B899C89988B8F878F8598890197F1F7BD
:101D0000988B8F87A8E3B0E0E8E3F0E080818F7BD9
:101D10008C9380E090E0A0E8BFE38B879C87AD8741
:101D2000BE876B857C858D859E8520E030E04AEFFF
:101D300054E40E941F02DC01CB018F839887A9879E
:101D4000BA876F81788589859A8520E030E040E800
:101D50005FE30E94250488232CF481E090E09E83B9
:101D60008D833FC06F81788589859A8520E03FEF1C
:101D70004FE757E40E94C50318164CF56B857C8528
:101D80008D859E8520E030E040E251E40E941F02F4
:101D9000DC01CB01BC01CD010E944900DC01CB017B
:101DA0009E838D830FC088EC90E09C838B838B8116
:101DB0009C810197F1F79C838B838D819E81019794
:101DC0009E838D838D819E81009769F714C06F81FA
:101DD000788589859A850E944900DC01CB019E8324
:101DE0008D838D819E819A83898389819A810197D0
:101DF000F1F79A838983CD59DF4F0FB6F894DEBF90
:101E00000FBECDBFCF91DF911F910F9108950F931A
:101E10001F93DF93CF93CDB7DEB7C356D0400FB635
:101E2000F894DEBF0FBECDBFFE01ED59FF4F80839A
:101E3000A8E3B0E0E8E3F0E0808180618C93A8E360
:101E4000B0E0E8E3F0E080818F7D8C93FE01E15A01
:101E5000FF4F80E090E0A0E8BFE380839183A283FE
:101E6000B3838E01055A1F4FFE01E15AFF4F608177
:101E700071818281938120E030E04AEF54E40E9436
:101E80001F02DC01CB01F80180839183A283B3831D
:101E9000FE01E55AFF4F608171818281938120E0CC
:101EA00030E040E85FE30E942504882344F4FE010B
:101EB000E75AFF4F81E090E09183808364C0FE0188
:101EC000E55AFF4F608171818281938120E03FEF6D
:101ED0004FE757E40E94C50318160CF043C0FE01FB
:101EE000E15AFF4F608171818281938120E030E06F
:101EF00040E251E40E941F02DC01CB018E01075A2F
:101F00001F4FBC01CD010E944900DC01CB01F8014B
:101F1000918380831FC0FE01E95AFF4F88EC90E057
:101F200091838083FE01E95AFF4F8081918101975F
:101F3000F1F7FE01E95AFF4F91838083DE01A75A32
:101F4000BF4FFE01E75AFF4F8081918101971196A3
:101F50009C938E93FE01E75AFF4F808191810097F9
:101F6000D1F627C08E01075A1F4FFE01E55AFF4FD9
:101F700060817181828193810E944900DC01CB01E3
:101F8000F80191838083DE01AB5ABF4FFE01E75A0F
:101F9000FF4F808191818D939C93FE01EB5AFF4FFF
:101FA000808191810197F1F7FE01EB5AFF4F9183F8
:101FB0008083A8E3B0E0E8E3F0E0808180648C9364
:101FC000FE01EF5AFF4F80E090E0A0E8BFE380837E
:101FD0009183A283B3838E01035B1F4FFE01EF5AEF
:101FE000FF4F608171818281938120E030E04AEF70
:101FF00054E40E941F02DC01CB01F801808391832D
:10200000A283B383FE01E35BFF4F60817181828114
:10201000938120E030E040E85FE30E9425048823BC
:1020200044F4FE01E55BFF4F81E090E09183808303
:1020300064C0FE01E35BFF4F608171818281938107
:1020400020E03FEF4FE757E40E94C50318160CF05D
:1020500043C0FE01EF5AFF4F6081718182819381FD
:1020600020E030E040E251E40E941F02DC01CB019D
:102070008E01055B1F4FBC01CD010E944900DC01B0
:10208000CB01F801918380831FC0FE01E75BFF4F06
:1020900088EC90E091838083FE01E75BFF4F8081B5
:1020A00091810197F1F7FE01E75BFF4F91838083F8
:1020B000DE01A55BBF4FFE01E55BFF4F8081918193
:1020C000019711969C938E93FE01E55BFF4F8081F3
:1020D00091810097D1F627C08E01055B1F4FFE014D
:1020E000E35BFF4F60817181828193810E9449008F
:1020F000DC01CB01F80191838083DE01A95BBF4F36
:10210000FE01E55BFF4F808191818D939C93FE01E1
:10211000E95BFF4F808191810197F1F7FE01E95B57
:10212000FF4F91838083A8E3B0E0E8E3F0E0808193
:10213000982F907FFE01ED59FF4F808182958F701F
:10214000892B8C93FE01ED5BFF4F80E090E0A0E8CF
:10215000BFE380839183A283B3838E01015C1F4F11
:10216000FE01ED5BFF4F608171818281938120E0F0
:1021700030E04AEF54E40E941F02DC01CB01F80179
:1021800080839183A283B383FE01FF966081718176
:102190008281938120E030E040E85FE30E942504E3
:1021A00088232CF481E090E09EAF8DAF46C0FE0105
:1021B000FF96608171818281938120E03FEF4FE73C
:1021C00057E40E94C503181664F5FE01ED5BFF4F4E
:1021D000608171818281938120E030E040E251E4AE
:1021E0000E941F02DC01CB01BC01CD010E9449000D
:1021F000DC01CB019EAF8DAF0FC088EC90E09CAFAF
:102200008BAF8BAD9CAD0197F1F79CAF8BAF8DADD4
:102210009EAD01979EAF8DAF8DAD9EAD009769F7D6
:1022200016C0FE01FF9660817181828193810E94B8
:102230004900DC01CB019EAF8DAF8DAD9EAD9AAF55
:1022400089AF89AD9AAD0197F1F79AAF89AFA8E34D
:10225000B0E0E8E3F0E080818F7B8C9380E090E059
:10226000A0E8BFE38DAB9EABAFABB8AF6DA97EA9C5
:102270008FA998AD20E030E04AEF54E40E941F029D
:10228000DC01CB0189AB9AABABABBCAB69A97AA93A
:102290008BA99CA920E030E040E85FE30E94250480
:1022A00088232CF481E090E098AB8FA73FC069A908
:1022B0007AA98BA99CA920E03FEF4FE757E40E9441
:1022C000C50318164CF56DA97EA98FA998AD20E01D
:1022D00030E040E251E40E941F02DC01CB01BC016E
:1022E000CD010E944900DC01CB0198AB8FA70FC044
:1022F00088EC90E09EA78DA78DA59EA50197F1F78C
:102300009EA78DA78FA598A9019798AB8FA78FA59A
:1023100098A9009769F714C069A97AA98BA99CA903
:102320000E944900DC01CB0198AB8FA78FA598A92B
:102330009CA78BA78BA59CA50197F1F79CA78BA7C2
:10234000A8E3B0E0E8E3F0E0808180648C9380E073
:1023500090E0A0E8BFE38FA398A7A9A7BAA76FA1B1
:1023600078A589A59AA520E030E04AEF54E40E94C0
:102370001F02DC01CB018BA39CA3ADA3BEA36BA169
:102380007CA18DA19EA120E030E040E85FE30E94A7
:10239000250488232CF481E090E09AA389A33FC010
:1023A0006BA17CA18DA19EA120E03FEF4FE757E4F8
:1023B0000E94C50318164CF56FA178A589A59AA5AA
:1023C00020E030E040E251E40E941F02DC01CB013A
:1023D000BC01CD010E944900DC01CB019AA389A375
:1023E0000FC088EC90E098A38F8F8F8D98A10197F4
:1023F000F1F798A38F8F89A19AA101979AA389A336
:1024000089A19AA1009769F714C06BA17CA18DA145
:102410009EA10E944900DC01CB019AA389A389A156
:102420009AA19E8F8D8F8D8D9E8D0197F1F79E8F36
:102430008D8FA8E3B0E0E8E3F0E08081982F907FF3
:10244000FE01ED59FF4F80818F70892B8C9380E0C6
:1024500090E0A0E8BFE3898F9A8FAB8FBC8F698D26
:102460007A8D8B8D9C8D20E030E04AEF54E40E9401
:102470001F02DC01CB018D8B9E8BAF8BB88F6D89DA
:102480007E898F89988D20E030E040E85FE30E94EC
:10249000250488232CF481E090E09C8B8B8B3FC03B
:1024A0006D897E898F89988D20E03FEF4FE757E453
:1024B0000E94C50318164CF5698D7A8D8B8D9C8D05
:1024C00020E030E040E251E40E941F02DC01CB0139
:1024D000BC01CD010E944900DC01CB019C8B8B8BA0
:1024E0000FC088EC90E09A8B898B89899A89019733
:1024F000F1F79A8B898B8B899C8901979C8B8B8BAD
:102500008B899C89009769F714C06D897E898F89B2
:10251000988D0E944900DC01CB019C8B8B8B8B89B1
:102520009C89988B8F878F8598890197F1F7988B75
:102530008F87A8E3B0E0E8E3F0E080818F7B8C93A5
:1025400080E090E0A0E8BFE38B879C87AD87BE87E3
:102550006B857C858D859E8520E030E04AEF54E4D4
:102560000E941F02DC01CB018F839887A987BA875D
:102570006F81788589859A8520E030E040E85FE3C7
:102580000E94250488232CF481E090E09E838D83B3
:102590003FC06F81788589859A8520E03FEF4FE7BE
:1025A00057E40E94C50318164CF56B857C858D8514
:1025B0009E8520E030E040E251E40E941F02DC01F1
:1025C000CB01BC01CD010E944900DC01CB019E83FF
:1025D0008D830FC088EC90E09C838B838B819C81E2
:1025E0000197F1F79C838B838D819E8101979E8358
:1025F0008D838D819E81009769F714C06F817885E6
:1026000089859A850E944900DC01CB019E838D83D8
:102610008D819E819A83898389819A810197F1F7BF
:102620009A838983CD59DF4F0FB6F894DEBF0FBE72
:10263000CDBFCF91DF911F910F910895DF93CF937D
:1026400000D0CDB7DEB79A8389830AC0E981FA81C9
:1026500080810E94070F89819A8101969A838983DC
:10266000E981FA818081882389F70F900F90CF91BB
:10267000DF910895DF93CF9300D000D00F92CDB7B4
:10268000DEB78A836B838A81282F30E03D832C83D9
:102690008C819D8181309105C1F02C813D8122305A
:1026A00031052CF48C819D81009761F019C02C813B
:1026B0003D812230310569F08C819D818330910507
:1026C00061F00EC08B8189830BC08B81805C898314
:1026D00007C08B81805F898303C08B81805B898386
:1026E000898180680E94F00A0F900F900F900F90E0
:1026F0000F90CF91DF910895DF93CF9300D000D05A
:10270000CDB7DEB789836A835C834B8389816A8115
:102710000E943A138B819C810E941E130F900F9090
:102720000F900F90CF91DF910895DF93CF93CDB7A6
:10273000DEB727970FB6F894DEBF0FBECDBF6C8310
:102740007D838E839F838AE890E09B838A831982AE
:102750008C819D81AE81BF81BB238CF481E0898314
:102760008C819D81AE81BF81B095A095909581951A
:102770009F4FAF4FBF4F8C839D83AE83BF83EA8152
:10278000FB8110828C819D81AE81BF810097A10564
:10279000B105B1F58A819B8101979B838A83EA8188
:1027A000FB8180E3808335C08A819B8101979B8375
:1027B0008A838C819D81AE81BF812AE030E040E038
:1027C00050E0BC01CD010E94AD1BDC01CB01FC013E
:1027D000E05AFF4F8081EA81FB8180838C819D815B
:1027E000AE81BF812AE030E040E050E0BC01CD0185
:1027F0000E94AD1BDA01C9018C839D83AE83BF8328
:102800008C819D81AE81BF81181619061A061B06A0
:102810005CF28981882351F019828A819B8101971A
:102820009B838A83EA81FB818DE280838A819B81FD
:102830000E941E1327960FB6F894DEBF0FBECDBFC1
:10284000CF91DF910895DF93CF93CDB7DEB781E0CD
:102850000E94F00ACF91DF910895DF93CF9300D0CB
:10286000CDB7DEB70E945A150E94F91A0E94BC0823
:102870000E943A1B80E00E944B1B80938B0081E0FA
:102880000E946C1B80938C0080919500882309F432
:1028900058C0E0E3F0E08081882F90E08170907074
:1028A000882309F1809191008F5F8093910080913E
:1028B00091008430D1F410929100E0E3F0E0808147
:1028C000882F90E081709070882379F080918D003E
:1028D000882359F4809173008F5F8093730081E0A7
:1028E00080938D0002C010928D00E0E3F0E08081C3
:1028F000882F90E082709070009709F1809191008C
:102900008F5F80939100809191008430D1F4109278
:102910009100E0E3F0E08081882F90E08270907079
:10292000009779F080918E00882359F4809173008C
:1029300081508093730081E080938E0002C01092DA
:102940008E0080919600882309F458C0E0E3F0E0FF
:102950008081882F90E080719070009709F18091BC
:1029600092008F5F80939200809192008430D1F426
:1029700010929200E0E3F0E08081882F90E0807177
:102980009070009779F080918F00882359F480919E
:1029900074008F5F8093740081E080938F0002C089
:1029A00010928F00E0E3F0E08081882F90E0807249
:1029B0009070009709F1809192008F5F8093920050
:1029C000809192008430D1F410929200E0E3F0E024
:1029D0008081882F90E080729070009779F08091CC
:1029E0009000882359F48091740081508093740082
:1029F00081E08093900002C01092900080918C0042
:102A00009091740020918B0030917300692F422FB8
:102A1000232F0E94761580918B00282F30E0809123
:102A20007300882F90E002961A828217930714F49D
:102A300081E08A8380918B00282F30E080917300A1
:102A4000882F90E0029719822817390714F491E033
:102A500099838A819981892B882319F00E94090919
:102A600002C00E94170980918B00282F30E08091CE
:102A70007300882F90E00197281739072CF40E94E3
:102A8000ED080E94DF08F6CE80918B00282F30E001
:102A900080917300882F90E00196821793072CF4A1
:102AA0000E94FB080E94D108E5CE0E94FB080E940C
:102AB000DF08E0CEDF93CF93CDB7DEB7A4E3B0E07D
:102AC000E4E3F0E080818F608C93E7E3F0E08FEF48
:102AD0008083A5E3B0E0E5E3F0E08081807F8C9324
:102AE000E8E3F0E01082CF91DF9108950F931F93F8
:102AF000DF93CF93CDB7DEB7C557D0400FB6F8946C
:102B0000DEBF0FBECDBFFE01EE58FF4F8083FE013A
:102B1000ED58FF4F6083FE01EC58FF4F4083FE01EC
:102B2000EB58FF4F2083DE01AF58BF4FFE01EE5838
:102B3000FF4F80819AE0692F0E948D1B892F8C9313
:102B4000E8E3F0E080E88083A5E3B0E0E5E3F0E0CF
:102B50008081982F907FFE01EF58FF4F80818F700A
:102B6000892B8C93FE01E359FF4F80E090E0A0EAAF
:102B7000B0E480839183A283B3838E0107591F4FF2
:102B8000FE01E359FF4F608171818281938120E0D2
:102B900030E04AEF54E40E941F02DC01CB01F8014F
:102BA00080839183A283B383FE01E759FF4F608145
:102BB00071818281938120E030E040E85FE30E94F0
:102BC0002504882344F4FE01E959FF4F81E090E099
:102BD0009183808364C0FE01E759FF4F608171815A
:102BE0008281938120E03FEF4FE757E40E94C503C5
:102BF00018160CF043C0FE01E359FF4F608171814C
:102C00008281938120E030E040E251E40E941F0283
:102C1000DC01CB018E0109591F4FBC01CD010E947F
:102C20004900DC01CB01F801918380831FC0FE01C4
:102C3000EB59FF4F88EC90E091838083FE01EB59C4
:102C4000FF4F808191810197F1F7FE01EB59FF4F12
:102C500091838083DE01A959BF4FFE01E959FF4FDF
:102C600080819181019711969C938E93FE01E95981
:102C7000FF4F808191810097D1F627C08E010959BD
:102C80001F4FFE01E759FF4F60817181828193815F
:102C90000E944900DC01CB01F80191838083DE01B1
:102CA000AD59BF4FFE01E959FF4F808191818D934E
:102CB0009C93FE01ED59FF4F808191810197F1F7BF
:102CC000FE01ED59FF4F91838083DE01AF58BF4F66
:102CD000FE01EE58FF4F80819AE0692F0E948D1B04
:102CE0008C93E8E3F0E080E48083A5E3B0E0E5E3E3
:102CF000F0E08081982F907FFE01EF58FF4F808198
:102D00008F70892B8C93FE01E15AFF4F80E090E099
:102D1000A0EAB0E480839183A283B3838E01055A35
:102D20001F4FFE01E15AFF4F6081718182819381C3
:102D300020E030E04AEF54E40E941F02DC01CB01A6
:102D4000F80180839183A283B383FE01E55AFF4F8C
:102D5000608171818281938120E030E040E85FE30F
:102D60000E942504882344F4FE01E75AFF4F81E0C6
:102D700090E09183808364C0FE01E55AFF4F60813B
:102D800071818281938120E03FEF4FE757E40E94F9
:102D9000C50318160CF043C0FE01E15AFF4F6081D5
:102DA00071818281938120E030E040E251E40E9411
:102DB0001F02DC01CB018E01075A1F4FBC01CD0160
:102DC0000E944900DC01CB01F801918380831FC080
:102DD000FE01E95AFF4F88EC90E091838083FE0169
:102DE000E95AFF4F808191810197F1F7FE01E95A7D
:102DF000FF4F91838083DE01A75ABF4FFE01E75A40
:102E0000FF4F80819181019711969C938E93FE01D3
:102E1000E75AFF4F808191810097D1F627C08E013C
:102E2000075A1F4FFE01E55AFF4F60817181828171
:102E300093810E944900DC01CB01F80191838083DA
:102E4000DE01AB5ABF4FFE01E75AFF4F80819181EF
:102E50008D939C93FE01EB5AFF4F808191810197E6
:102E6000F1F7FE01EB5AFF4F91838083DE01AF58EB
:102E7000BF4FFE01ED58FF4F80819AE0692F0E94FD
:102E80008D1B892F8C93E8E3F0E080E28083A5E33B
:102E9000B0E0E5E3F0E08081982F907FFE01EF58ED
:102EA000FF4F80818F70892B8C93FE01EF5AFF4F6B
:102EB00080E090E0A0EAB0E480839183A283B383B2
:102EC0008E01035B1F4FFE01EF5AFF4F608171813E
:102ED0008281938120E030E04AEF54E40E941F0297
:102EE000DC01CB01F80180839183A283B383FE01CF
:102EF000E35BFF4F608171818281938120E030E04C
:102F000040E85FE30E942504882344F4FE01E55B6A
:102F1000FF4F81E090E09183808364C0FE01E35B1A
:102F2000FF4F608171818281938120E03FEF4FE705
:102F300057E40E94C50318160CF043C0FE01EF5A77
:102F4000FF4F608171818281938120E030E040E217
:102F500051E40E941F02DC01CB018E01055B1F4F73
:102F6000BC01CD010E944900DC01CB01F801918335
:102F700080831FC0FE01E75BFF4F88EC90E09183E8
:102F80008083FE01E75BFF4F808191810197F1F71C
:102F9000FE01E75BFF4F91838083DE01A55BBF4F9E
:102FA000FE01E55BFF4F80819181019711969C9313
:102FB0008E93FE01E55BFF4F808191810097D1F6F2
:102FC00027C08E01055B1F4FFE01E35BFF4F608151
:102FD0007181828193810E944900DC01CB01F8015B
:102FE00091838083DE01A95BBF4FFE01E55BFF4F4C
:102FF000808191818D939C93FE01E95BFF4F8081DD
:1030000091810197F1F7FE01E95BFF4F9183808386
:10301000DE01AF58BF4FFE01ED58FF4F80819AE0AF
:10302000692F0E948D1B8C93E8E3F0E080E18083A0
:10303000A5E3B0E0E5E3F0E08081982F907FFE010A
:10304000EF58FF4F80818F70892B8C93FE01ED5BD1
:10305000FF4F80E090E0A0EAB0E480839183A283F8
:10306000B3838E01015C1F4FFE01ED5BFF4F60815A
:1030700071818281938120E030E04AEF54E40E9424
:103080001F02DC01CB01F80180839183A283B3830B
:10309000FE01FF96608171818281938120E030E0A2
:1030A00040E85FE30E94250488232CF481E090E04F
:1030B0009EAF8DAF46C0FE01FF9660817181828117
:1030C000938120E03FEF4FE757E40E94C5031816B5
:1030D00064F5FE01ED5BFF4F608171818281938118
:1030E00020E030E040E251E40E941F02DC01CB010D
:1030F000BC01CD010E944900DC01CB019EAF8DAF28
:103100000FC088EC90E09CAF8BAF8BAD9CAD01976E
:10311000F1F79CAF8BAF8DAD9EAD01979EAF8DAF9C
:103120008DAD9EAD009769F716C0FE01FF966081D8
:103130007181828193810E944900DC01CB019EAFA5
:103140008DAF8DAD9EAD9AAF89AF89AD9AAD019728
:10315000F1F79AAF89AFDE01AF58BF4FFE01EC58CF
:10316000FF4F80819AE0692F0E948D1B892F8C93DD
:10317000E8E3F0E088E08083A5E3B0E0E5E3F0E099
:103180008081982F907FFE01EF58FF4F80818F70D4
:10319000892B8C9380E090E0A0EAB0E48DAB9EABED
:1031A000AFABB8AF6DA97EA98FA998AD20E030E094
:1031B0004AEF54E40E941F02DC01CB0189AB9AABB9
:1031C000ABABBCAB69A97AA98BA99CA920E030E084
:1031D00040E85FE30E94250488232CF481E090E01E
:1031E00098AB8FA73FC069A97AA98BA99CA920E0B9
:1031F0003FEF4FE757E40E94C50318164CF56DA941
:103200007EA98FA998AD20E030E040E251E40E9411
:103210001F02DC01CB01BC01CD010E944900DC0191
:10322000CB0198AB8FA70FC088EC90E09EA78DA72D
:103230008DA59EA50197F1F79EA78DA78FA598A9AB
:10324000019798AB8FA78FA598A9009769F714C02D
:1032500069A97AA98BA99CA90E944900DC01CB012C
:1032600098AB8FA78FA598A99CA78BA78BA59CA58A
:103270000197F1F79CA78BA7DE01AF58BF4FFE0166
:10328000EC58FF4F80819AE0692F0E948D1B8C9330
:10329000E8E3F0E084E08083A5E3B0E0E5E3F0E07C
:1032A0008081982F907FFE01EF58FF4F80818F70B3
:1032B000892B8C9380E090E0A0EAB0E48FA398A7DC
:1032C000A9A7BAA76FA178A589A59AA520E030E0A3
:1032D0004AEF54E40E941F02DC01CB018BA39CA3A4
:1032E000ADA3BEA36BA17CA18DA19EA120E030E087
:1032F00040E85FE30E94250488232CF481E090E0FD
:103300009AA389A33FC06BA17CA18DA19EA120E0BF
:103310003FEF4FE757E40E94C50318164CF56FA125
:1033200078A589A59AA520E030E040E251E40E940A
:103330001F02DC01CB01BC01CD010E944900DC0170
:10334000CB019AA389A30FC088EC90E098A38F8F3C
:103350008F8D98A10197F1F798A38F8F89A19AA1DA
:1033600001979AA389A389A19AA1009769F714C02C
:103370006BA17CA18DA19EA10E944900DC01CB0123
:103380009AA389A389A19AA19E8F8D8F8D8D9E8DE1
:103390000197F1F79E8F8D8FDE01AF58BF4FFE0171
:1033A000EB58FF4F80819AE0692F0E948D1B892F77
:1033B0008C93E8E3F0E082E08083A5E3B0E0E5E30E
:1033C000F0E08081982F907FFE01EF58FF4F8081C1
:1033D0008F70892B8C9380E090E0A0EAB0E4898F15
:1033E0009A8FAB8FBC8F698D7A8D8B8D9C8D20E0F1
:1033F00030E04AEF54E40E941F02DC01CB018D8BC8
:103400009E8BAF8BB88F6D897E898F89988D20E0D8
:1034100030E040E85FE30E94250488232CF481E03B
:1034200090E09C8B8B8B3FC06D897E898F89988DB6
:1034300020E03FEF4FE757E40E94C50318164CF514
:10344000698D7A8D8B8D9C8D20E030E040E251E4D7
:103450000E941F02DC01CB01BC01CD010E9449008A
:10346000DC01CB019C8B8B8B0FC088EC90E09A8B9E
:10347000898B89899A890197F1F79A8B898B8B8936
:103480009C8901979C8B8B8B8B899C89009769F712
:1034900014C06D897E898F89988D0E944900DC0156
:1034A000CB019C8B8B8B8B899C89988B8F878F858D
:1034B00098890197F1F7988B8F87DE01AF58BF4F3E
:1034C000FE01EB58FF4F80819AE0692F0E948D1B0F
:1034D0008C93E8E3F0E081E08083A5E3B0E0E5E3EE
:1034E000F0E08081982F907FFE01EF58FF4F8081A0
:1034F0008F70892B8C9380E090E0A0EAB0E48B87FA
:103500009C87AD87BE876B857C858D859E8520E0F9
:1035100030E04AEF54E40E941F02DC01CB018F83AC
:103520009887A987BA876F81788589859A8520E0F1
:1035300030E040E85FE30E94250488232CF481E01A
:1035400090E09E838D833FC06F81788589859A85C1
:1035500020E03FEF4FE757E40E94C50318164CF5F3
:103560006B857C858D859E8520E030E040E251E4CE
:103570000E941F02DC01CB01BC01CD010E94490069
:10358000DC01CB019E838D830FC088EC90E09C838F
:103590008B838B819C810197F1F79C838B838D8139
:1035A0009E8101979E838D838D819E81009769F70F
:1035B00014C06F81788589859A850E944900DC0155
:1035C000CB019E838D838D819E819A83898389819E
:1035D0009A810197F1F79A838983CB58DF4F0FB611
:1035E000F894DEBF0FBECDBFCF91DF911F910F9139
:1035F0000895DF93CF93CDB7DEB77894A1E3B0E021
:10360000E1E3F0E08081807C8C9385E790E00E948C
:10361000250988E19BE10E945D0987E790E00E940F
:10362000A20989E29BE10E94E309CF91DF9108950D
:10363000DF93CF93CDB7DEB780919500882321F437
:1036400081E08093950002C010929500CF91DF91A8
:103650000895DF93CF93CDB7DEB78091960088238E
:1036600021F481E08093960002C010929600CF91E1
:10367000DF910895DF93CF9300D0CDB7DEB71982E5
:1036800083E08A83CE0101960E9475080F900F9007
:10369000CF91DF910895DF93CF9300D0CDB7DEB700
:1036A0008A838A810E9493089C0184EF91E0AC0197
:1036B000249FC001259F900D349F900D11242FEF62
:1036C00033E0B9010E94991BCB01898389810F9056
:1036D0000F90CF91DF910895DF93CF9300D0CDB7B6
:1036E000DEB78A838A810E9493089C0184EF91E06F
:1036F000AC01249FC001259F900D349F900D112493
:103700002FEF33E0B9010E94991BCB018983898196
:103710000F900F90CF91DF910895991B79E004C02D
:10372000991F961708F0961B881F7A95C9F7809500
:103730000895AA1BBB1B51E107C0AA1FBB1FA617F8
:10374000B70710F0A61BB70B881F991F5A95A9F74A
:1037500080959095BC01CD01089597FB092E052613
:103760000ED057FD04D014D00AD0001C38F4509568
:103770004095309521953F4F4F4F5F4F0895F6F795
:1037800090958095709561957F4F8F4F9F4F0895CD
:10379000A1E21A2EAA1BBB1BFD010DC0AA1FBB1F55
:1037A000EE1FFF1FA217B307E407F50720F0A21BC7
:1037B000B30BE40BF50B661F771F881F991F1A9434
:1037C00069F760957095809590959B01AC01BD015E
:1037D000CF0108952F923F924F925F926F927F9206
:1037E0008F929F92AF92BF92CF92DF92EF92FF9211
:1037F0000F931F93CF93DF93CDB7DEB7CA1BDB0BBD
:103800000FB6F894DEBF0FBECDBF09942A88398861
:1038100048885F846E847D848C849B84AA84B98468
:10382000C884DF80EE80FD800C811B81AA81B98174
:10383000CE0FD11D0FB6F894DEBF0FBECDBFED0188
:063840000895F894FFCF8B
:103846003031323334353637383900000000000065
:0A385600000000253203000300000B
:00000001FF
